:020000040800F2
:10000000204B0020610200087B220008591B0008D9
:10001000792200083109000861260008000000006C
:10002000000000000000000000000000A101000826
:100030003309000800000000FD010008AD2200089F
:100040007B0200087B0200087B0200087B0200089C
:100050007B0200087B0200087B0200087B0200088C
:100060007B0200087B0200087B0200087B0200087C
:100070007B0200087B0200087B0200087B0200086C
:100080007B0200087B0200087B0200087B0200085C
:100090007B0200087B0200087B0200087B0200084C
:1000A0007B0200087D2300087B0200087B02000819
:1000B0007B0200087B0200087B0200087B0200082C
:1000C0007B0200087B0200087B0200087B0200081C
:1000D0007B0200087B0200087B0200087B0200080C
:1000E0007B0200087B0200087B0200087B020008FC
:1000F0007B0200087B0200087B0200087B020008EC
:100100007B0200087B0200087B0200087B020008DB
:10011000512400087B0200087B0200087B020008D3
:100120007B0200087B0200087B0200087B020008BB
:100130007B0200087B0200087B0200087B020008AB
:100140007B0200087B0200087B0200087B0200089B
:100150007B0200087B0200087B0200087B0200088B
:100160007B0200087B0200087B0200087B0200087B
:100170007B0200087B0200087B02000800000000F0
:100180007B0200087B020008DFF810D000F0BEFB05
:100190000048004765300008AFF30080204B002086
:1001A0002C4B19680868B0E8F04F80F30988BFF35A
:1001B0006F8F4FF0000080F311887047000000003F
:1001C00008480068006880F308884FF0000080F35A
:1001D000148862B661B6BFF34F8FBFF36F8F00DF35
:1001E00000BF00BF08ED00E0DFF80C00016841F43B
:1001F00070010160704700BF88ED00E0EFF30980F7
:10020000BFF36F8F134B1A681EF0100F08BF20ED5D
:10021000108A20E9F04F106009B44FF0500080F3CD
:100220001188BFF34F8FBFF36F8F03F0DBFF4FF0E9
:10023000000080F3118809BC19680868B0E8F04F25
:100240001EF0100F08BFB0EC108A80F30988BFF3CE
:100250006F8F70476C000020EFF30580704700003F
:100260000648804706480047FEE7FEE7FEE7FEE750
:10027000FEE7FEE7FEE7FEE7FEE7FEE76D23000888
:10028000890100082DE9F05F0546002092469B4653
:1002900088460646814640241BE02846414647469C
:1002A000224600F0DEF953465A46C01A914110D357
:1002B00011461846224600F0C5F92D1A67EB0108D1
:1002C0004F4622460120002100F0BCF917EB00093F
:1002D0004E41201EA4F10104DFDC484631462A4687
:1002E0004346BDE8F09F00000649074A08685043AE
:1002F00043F2390210440860400870470149086021
:1003000070470000E80000206D4EC64140EA01033E
:100310009B0703D009E008C9121F08C0042AFAD2BB
:1003200003E011F8013B00F8013B521EF9D270477F
:10033000D2B201E000F8012B491EFBD27047002227
:10034000F6E710B513460A4604461946FFF7F0FFD4
:10035000204610BD421C10F8011B0029FBD1801A59
:1003600070472DE9FE4F804681EA0300C00F0C461E
:10037000009021F0004123F00045B8EB0200A941B4
:1003800005D24046214690461C460B46024623F0C5
:100390000040104347D0270DC7F30A00C3F30A51AA
:1003A0000290401A019040286BDAC3F3130040F426
:1003B000801B0098924620B10023D2EB030A63EB26
:1003C0000B0B01985946C0F14002504600F03AF933
:1003D00006460D4650465946019A00F052F910EB78
:1003E00008006141002487EA115284EAE7731A4346
:1003F00040D0009A62B3019A012A4FEA075215DCF5
:10040000001B61EB02014FF0004202EA0752CDE906
:100410000042001C41F5801132462B4600F089F95C
:1004200003B0BDE8F08F40462146F9E7001B61EBC1
:100430000201001C41F5801300185B412018A2F551
:10044000001747EB030140EAD570B6196D4111E082
:100450006D084FEA360645EAC0754FEA0752001BA1
:1004600061EB0201001C41F5801149084FEA3000A0
:100470000019514132462B4603B0BDE8F04F00F061
:1004800049B90098012240000023D0EB020263EB3F
:10049000E073009821464FEAE074B8EB000061EB8E
:1004A0000401E9E783F000435BE781F0004158E78E
:1004B0002DE9FE4F81EA030404F0004421F00041DD
:1004C00000944FF0000B23F0004350EA01045ED08B
:1004D00052EA03045BD0C3F30A54C1F30A552C4417
:1004E000A4F2F3340194A0FB0254C1F3130141F4CC
:1004F0008011C3F3130343F4801301FB024400FB98
:10050000034E840A970A44EA815447EA8357A4FBBE
:10051000076802958D0A05FB07854FEA932C04FBBB
:100520000C542705029D4FEA065847EA1637B5EBEB
:1005300008056EEB070C870E920E47EA811742EA18
:100540008312A7FB0201B6EB0B0164EB00042B0D39
:1005500043EA0C335E1844EB1C50DA465146E7FB85
:100560000201C5F313044FEA0B3343EA14534FEA75
:100570000432019C43EA0603A4F10C040294009C9B
:10058000CDE900B400F0D5F803B0BDE8F08F00204D
:100590000146F9E70EB540F2334102910021CDE961
:1005A00000110A460B4600F0C4F803B000BDC1F3C9
:1005B0000A5210B5C1F3130140F2FF3341F4801128
:1005C0009A4201DA002010BD40F233439A42A2F26F
:1005D000334203DC524200F044F810BD904010BD9D
:1005E00001F0004330B421F0004150EA010206D08E
:1005F0000A0DA2F56072C1F31301002A02DC30BCBF
:1006000000207047440F44EAC104C100E01830BC28
:1006100000EBC25000F047B830B50B460146002051
:100620002022012409E021FA02F59D4205D303FAB4
:1006300002F5491B04FA02F52844151EA2F1010235
:10064000F1DC30BD202A04DB203A00FA02F1002060
:1006500070479140C2F1200320FA03F31943904000
:100660007047202A04DB203A21FA02F0002170476B
:1006700021FA02F3D040C2F120029140084319460A
:100680007047202A06DBCB17203A41FA02F043EAF2
:10069000E07306E041FA02F3D040C2F1200291403B
:1006A0000843194670470029A8BF7047401C4900FD
:1006B00008BF20F00100704710B4B0FA80FC00FAC7
:1006C0000CF050EA010404BF10BC704749B1CCF1F2
:1006D000200421FA04F411FA0CF118BF012121437E
:1006E0000843A3EB0C01CB1D4FEA00614FEA102039
:1006F00042BF002010BC704700EBC35010440029DB
:10070000A4BF10BC7047401C490008BF20F0010086
:1007100010BC704710B5141E73F1000408DA401CB9
:1007200041F1000192185B411A4301D120F0010010
:1007300010BD2DE9F04D92469B4611B1B1FA81F200
:1007400002E0B0FA80F220329046FFF77BFF0446C9
:100750000F4640EA0A0041EA0B0153465A46084355
:1007600013D0114653EA010019D0C8F14002504697
:10077000FFF777FF05460E46504659464246FFF7BB
:1007800061FF084305D0012004E020463946BDE85A
:10079000F08D0020054346EAE0762C4337430A9863
:1007A0006305E40AA0EB08000022FD0A44EA47546E
:1007B0000A3002D500200146E9E701051019694118
:1007C000DDE9084500196941BDE8F04DA2E72DE9D2
:1007D000F04D81EA030404F0004B21F0004514467B
:1007E0004FF0000A23F0004150EA050220D054EAFD
:1007F00001021DD0C5F30A570246C5F31303C1F326
:100800001300C1F30A5640F4801543F48013A7EB9C
:100810000608101BD64608F2FD3873EB050002D31C
:1008200008F1010801E092185B41B8F1000F03DA0A
:1008300000200146BDE8F08D00204FF480110646EF
:1008400084460EE0171B73EB050705D3121B63EB01
:10085000050306434CEA010C49084FEA30009218A0
:100860005B4150EA0107EDD152EA030012D082EA5F
:10087000040083EA0501084305D0101BAB4106D2F2
:100880000122002306E000224FF0004302E06FF057
:10089000010253101AEB06004CEB085110EB0A0052
:1008A00041EB0B01BDE8F04DFFF734BFC1F30A5235
:1008B000C1F3130140F2FF3341F480119A4202DA8E
:1008C00000200146704740F233439A42A2F233427D
:1008D00002DC5242FFF7C5BEFFF7B4BE30B5041EBE
:1008E00071F1000404DB4FF00044404264EB01016D
:1008F000141E73F1000405DB1C464FF00043524206
:1009000063EB0403994208BF904230BD064C074D8B
:1009100006E0E06840F0010394E8070098471034CF
:10092000AC42F6D3FFF734FC84500008A450000812
:10093000FEE7704710B501F0A1FC19A001F06CFEB4
:100940004FF47A7000F0DEF801F00EFE17A001F00F
:1009500063FE18A001F086FE0028FAD001F004FE24
:1009600016A001F059FE13A001F07CFE0028FAD079
:1009700001F0FAFD16A001F04FFE19A001F072FE81
:100980000028FAD001F0F0FD18A001F045FE09A002
:1009900001F068FE0028FAD0BDE8104001F0E4BD87
:1009A00041542B5253540D0A0000000041540D0ACB
:1009B000000000004F4B0D0A0000000041542B4383
:1009C000574D4F44455F4445463D310D0A000000F8
:1009D00041542B43574A41505F4445460D0A00009D
:1009E000474F542049500D0A0000000041542B434A
:1009F00049504D55583D300D0A00000070B5A2B069
:100A00000D4606461446642101A8FFF798FC2021F4
:100A10001AA8FFF794FC1BA001F0FEFD24A001F032
:100A200021FE0028FAD02B46324623A101A80094CB
:100A300001F048FE01A8FFF78DFC024627A11AA885
:100A400001F040FE1AA801F0E7FD28A001F00AFE1F
:100A50000028FAD001A801F0DFFD25A001F002FE78
:100A60000028FAD025A001F0FDFD0028FAD001A849
:100A700002F0A6FA1AA802F0A3FA01F0FFFB22B0D6
:100A800070BD000041542B43495053544152543DD2
:100A900022544350222C223138342E3130362E311C
:100AA00035332E313439222C38300D0A0000000045
:100AB0004F4B0D0A00000000474554202F7570640D
:100AC0006174653F6170695F6B65793D257326666A
:100AD00069656C6425643D25750D0A0041542B43FE
:100AE000495053454E443D25640D0A003E00000028
:100AF00053454E44204F4B0D0A000000434C4F53CA
:100B00004544000070B5044600F014F90546601C29
:100B100002D004480078044400F00CF9401BA042C5
:100B2000FAD370BD5C0000202DE9F84FDFF8BCA1BE
:100B3000002201250AF1040B03264FF00F090BF1E7
:100B4000040E00BF0B6805FA02F42340A34270D1E3
:100B50000F7907F00307012F01D0022F16D1876804
:100B60004FEA420806FA08FC27EA0C07D1F80CC045
:100B70000CFA08FC4CEA070CC0F808C04768A74309
:100B80000C79C4F3001494403C4344600C79E44372
:100B9000A4070AD0C4684FEA420C06FA0CF7BC431B
:100BA0008F6807FA0CF72743C7600C7904F0030439
:100BB000022C12D1D40800EB840CDCF8204057073B
:100BC000FF0E09FA07F824EA0804D1F8108008FAA1
:100BD00007F848EA0408CCF8208004684FEA420C81
:100BE00006FA0CF7BC430F7907F0030707FA0CF776
:100BF000274307604C6814F4403F70D03C4C276892
:100C000047F480472760246822F0030704F48044F7
:100C10000094384C07EB040CDCF8084897074FEABF
:100C2000177809FA08F7BC43334FB84202D10027BE
:100C300024E054E0314FB84201D101271EE0304F8B
:100C4000B84201D1022719E02E4FB84201D1032743
:100C500014E02D4FB84201D104270FE02B4FB842CA
:100C600001D105270AE02A4FB84201D1062705E045
:100C7000284FB84201D1072700E0082707FA08F7F4
:100C80002743CCF80878DAF800405746D1F804C07A
:100C90009C435FEACC3C00D51C433C60DBF8004041
:100CA0005F46D1F804C09C435FEA8C3C00D51C43EE
:100CB0003C60DEF800407746D1F804C09C435FEA10
:100CC000CC2C00D51C433C60084F0C373C68D1F855
:100CD00004C09C435FEA8C2C00D51C433C60521C32
:100CE000102AFFF42FAFBDE8F88F0000003C014050
:100CF000443802400030014000000240000402403D
:100D000000080240000C02400010024000140240A3
:100D100000180240001C0240426921EA02030A4016
:100D200043EA0241816170470AB181617047090459
:100D3000FBE7000001488068704700005C0000206D
:100D400070B5040025D094F83D00002520B984F842
:100D50003C50204600F0B4F9242084F83D0020687F
:100D6000016821F0010101602068016841F400413F
:100D700001602068016821F40041016000F046FB39
:100D80004D4A6168914201D84C4900E04C49884283
:100D900001D2012070BD4B492368B0FBF1F15E68C0
:100DA00026F03F060E435E606368934206D94FF417
:100DB000967359434FF47A73B1FBF3F12368491CDE
:100DC0001E6A26F03F06314319626168914210D8CD
:100DD0004900401EB0FBF1F2521CC2F30B02042A80
:100DE00001D2042022E0B0FBF1F0401CC0F30B0064
:100DF0001CE0A268F2B301EBC10303EB0116431E32
:100E0000B3FBF6F35B1C43F480431B0549D092B35C
:100E100001EBC10202EB0111401EB0FBF1F0401CDE
:100E2000C0F30B0040F4804040F400402168CA69E0
:100E30004CF6FF739A431043C861D4E9071001438D
:100E40002068026822F0C00211430160D4E9030166
:100E500001432068826848F2FF339A43114381605E
:100E6000D4E9050108432168CA6822F0FF02104353
:100E7000C86001E00EE016E02068016841F0010161
:100E800001602564202084F83D00256384F83E50ED
:100E9000002070BD01EB4106431EB3FBF6F35B1C63
:100EA000B3E70120C2E701EB4101401EB0FBF1F0C6
:100EB000401CC0F30B00B7E7A086010080841E0031
:100EC00000093D0040420F002DE9FF4F83B09A46D4
:100ED000DDE9119793460446DDF84080FFF72AFFCD
:100EE000054694F83D00202870D11923012271494C
:100EF0002046009500F0C6FE0028F5D194F83C008D
:100F0000012863D0012084F83C0020680168C907EB
:100F100003D1016841F0010101602068016821F4FA
:100F200000610160222084F83D00402084F83E00EA
:100F300000262664C4F82480A4F82A90608D2085B9
:100F40005D48E062CDE9007553465A462046049953
:100F500000F01AFE00287CD1208DD0B1012821D0CC
:100F60000228206824D0416980690090208D0328E0
:100F700069D801282BD0514902283B464FF0000286
:100F8000009559D08846204600F07CFE002860D1AC
:100F90003CE02068416981690091016841F4007179
:100FA000016077E02068016821F480610160F0E76A
:100FB000016821F4806101602068016841F40061EA
:100FC0000160206841698069009063E06FE02A4613
:100FD0003946204600F0D5FE98BB20680069616A5A
:100FE00008704EE02068016841F4007101602068DB
:100FF0000069616A0870606A401C6062218D491E48
:101000002185618D491E6185216838E0206801686D
:1010100021F48061016020680069616A0870606A7B
:10102000401C6062208D401E2085608D401E6085C2
:101030003B46002241460095204600F023FE00B9C1
:10104000D0E706E0FFE72A463946204600F099FE41
:1010500018B1012007B0BDE8F08F20680069616A0F
:101060000870606A401C6062218D491E2185618D77
:10107000491E618521684A69D24352070AD4096929
:101080000170606A401C6062208D401E2085608D6A
:10109000401E6085208D00287FF468AF202084F8F2
:1010A0003D0084F83E6084F83C600020D2E70220D6
:1010B000D0E70000020010000000FFFF0400010064
:1010C00010B586B0044614216846FFF738F9134975
:1010D0002068884220D11248016841F00201016075
:1010E0000068694600F002000590C02000901220C0
:1010F00001900120029003200390042004900948ED
:10110000FFF712FD06481030016841F4001101603C
:10111000006800F40010059006B010BD00540040B7
:1011200030380240000402400248816802781144CD
:10113000816070475C0000200B4810B5016841F4E5
:1011400000710160016841F480610160016841F44F
:1011500080710160032000F08DF8002000F006F897
:1011600000F03EF8002010BD003C024010B50146E2
:1011700088B00022192000F05DF8192000F04CF82A
:1011800013480024016841F001010160006805A9CD
:1011900000F001000690684600F018F900F046F9EA
:1011A0000C494000B0FBF1F10C480B4A491E0260AB
:1011B00040F2E732C0E90324C0E9011400F030FB3B
:1011C00010B1012008B010BD044800F057FBF9E74A
:1011D0004438024040420F0000000140BC0800209B
:1011E0000C4882B0016841F480410160006800F45D
:1011F000804000900748001F016841F08051016065
:101200000068002200F0805000900F21901E02B074
:1012100000F010B844380240002809DB00F01F023B
:10122000012191404009800000F1E020C0F8001148
:1012300070470000F0B40E4B1B680C46C3F302234A
:10124000C3F10705042D00D90425191D072901D272
:10125000002300E0DB1E012606FA05F1491E2140AD
:1012600099409E40761E16403143F0BC01F03EBAD4
:101270000CED00E0064900F0070208684FF6FF0396
:10128000184040EA0220034A1043086070470000FB
:101290000CED00E00000FA052DE9F0470E460500D0
:1012A00065D0DFF81481D8F80000F7B200F007002D
:1012B000B04207D288F80070D8F8000000F00700AC
:1012C000B04254D128683D4C810712D5400703D560
:1012D000206840F4E05020602878000703D520689B
:1012E00040F4604020602068A96820F0F0000843C6
:1012F00020602878C0072DD0304968680839012857
:1013000012D0022813D0032811D0096889070029B8
:101310002DDA216821F0030101432160FFF70AFD66
:10132000814641F2883A0EE009688903EFE70968CF
:101330008901ECE7FFF7FEFCA0EB0901514502D95A
:101340000320BDE8F0872068696800F00C00B0EB6E
:10135000810FEFD1D8F80010404601F00701B142EB
:1013600007D90770006800F00700B04201D00120E3
:10137000E7E72878400705D52068E96820F4E050C1
:10138000084320602878000706D52068296920F4E2
:10139000604040EAC100206000F058F82168084A27
:1013A000C1F30311515CC840064908600648006853
:1013B000FFF7DCFE0020C4E7003C02400838024092
:1013C0005050000868000020600000200F220260DA
:1013D0000C4A136803F003034360136803F0F0033F
:1013E0008360136803F4E053C36012684FF4E05362
:1013F00003EAD20202610448006800F007000860B6
:101400007047000008380240003C0240044805498B
:1014100000680968044AC1F38221515CC8407047E2
:101420006800002008380240605000080448054960
:1014300000680968044AC1F34231515CC8407047F2
:10144000680000200838024060500008154810B5B8
:10145000006810F00C02144813D01449042A0FD06D
:10146000082A0ED10F4C241F2268236802F03F0285
:101470005B0207D52068C0F38810A0FB010106E0DD
:10148000084610BD2168C1F38811A1FB00010023AB
:10149000FEF7F8FE2168C1F30141491C4900B0FB89
:1014A000F1F010BD083802400024F40040787D01BE
:1014B0002DE9F84F04006ED02078DFF84C93C00778
:1014C000A9F104054AD009F104000168C1F38101C2
:1014D000012908D00068C0F3810002280AD1D9F898
:1014E0000000400206D52868800337D560680028D0
:1014F000E1D033E06068B0F5803F10D0B0F5A02FA8
:10150000286810D020F480302860286820F48020DB
:1015100028606068A8B1FFF70DFC06460DE028685A
:1015200040F48030F4E740F480202860F7E700BF03
:10153000FFF700FC801B642873D828688003F7D568
:101540000CE0FFF7F7FB064605E000BFFFF7F2FBF4
:10155000801B6428F0D828688003F7D42078DFF84F
:10156000AC8280074FF0000A3ED5A748001D0168F5
:1015700011F00C0F08D00068C0F3810002280BD1D5
:10158000D9F80000400207D42868800716D5E06823
:10159000012800D112E033E1E068B8B10120C8F8B9
:1015A0000000FFF7C7FB064605E000BFFFF7C2FBE0
:1015B000801B0228C0D828688007F7D528682169D1
:1015C00020F0F80040EAC10028600DE0C8F800A053
:1015D000FFF7B0FB064604E0FFF7ACFB801B0228D8
:1015E0001FD828688007F7D42078000722D5864FB7
:1015F00087486169703771B101210160FFF79AFB7B
:10160000064604E0FFF796FB801B022809D83868DD
:101610008007F7D50EE0C0F800A0FFF78BFB064669
:1016200005E082E0FFF786FB801B02287DD8386842
:101630008007F7D42078400768D5DFF8CCB10027C1
:101640000BF13C0BDBF80000C0000BD4DBF8001002
:1016500041F08051CBF80010DBF80000012700F0CA
:10166000805000906B4E3068C00510D4306840F454
:1016700080703060FFF75EFB009005E0FFF75AFBDB
:101680000099401A022850D83068C005F6D55E4E41
:10169000A0686C3601280FD00528306810D020F0E3
:1016A00001003060306820F004003060A068B8B1FC
:1016B000FFF740FB00900FE0306840F00100F4E7D6
:1016C00040F004003060F7E7FFF734FB0099411A5F
:1016D00041F28830814266D830688007F4D50EE048
:1016E000FFF728FB009007E0FFF724FB0099411A61
:1016F00041F28830814256D830688007F4D42FB147
:10170000DBF8001021F08051CBF80010A069C8B3BD
:101710003D49091D0968C1F3810102294AD0022807
:10172000504607D0C8F8600000E03CE0FFF702FB3D
:1017300004463BE04746C8F86000FFF7FBFA064660
:1017400005E000BFFFF7F6FA801B02282BD82868B7
:101750008001F7D4D4E907010843A16A2E4A490859
:1017600002EB0141626A41EA8211084394F82C10AD
:1017700040EA0161C9F8001001203866FFF7DAFA83
:10178000044606E03EE000BFFFF7D4FA001B022843
:1017900009D828688001F7D534E000BFFFF7CAFAFE
:1017A000001B022802D90320BDE8F88F28688001B9
:1017B000F4D427E00128F7D0D9F80000E26900F45A
:1017C000800191421CD1226A00F03F01914217D161
:1017D00047F6C071626A0140B1EB821F10D1A26A64
:1017E0004FF0FF3300F4403103EB5202B1EB024FF4
:1017F00006D194F82C1000F07060B0EB016F01D0AE
:101800000120D1E70020CFE7043802400000474222
:10181000800E4742007000400000FFFF7047704795
:1018200010B5040003D094F83D0010B107E001208A
:1018300010BD002084F83C00204600F01EF8022075
:1018400084F83D00211D206800F09EFD012084F8F1
:10185000460084F83E0084F83F0084F8400084F895
:10186000410084F8420084F8430084F8440084F87E
:10187000450084F83D00002010BD704790F83D10F1
:10188000012901D001207047022180F83D10016834
:10189000CA6842F00102CA6000681149884214D047
:1018A000B0F1804F11D00F4988420ED00E498842C6
:1018B0000BD00E49884208D00D49884205D00D4909
:1018C000884202D00C49884204D1816801F00701A6
:1018D000062903D0016841F0010101600020704732
:1018E000000001400004004000080040000C0040DF
:1018F000000401400040014000180040704770B5EE
:101900000446006801694FF00005C943890715D4F2
:10191000C168C943890711D4E91E016101202077FC
:10192000206880698007204602D0FFF7E7FF04E0C7
:1019300000F098F8204600F096F8257720680169B5
:10194000C943490717D4C168C943490713D46FF085
:1019500004010161022020772068806910F4407F33
:10196000204602D0FFF7CAFF04E000F07BF82046D3
:1019700000F079F8257720680169C943090716D472
:10198000C168C943090712D46FF00801016104203E
:1019900020772068C0698007204602D0FFF7AEFF9D
:1019A00004E000F05FF8204600F05DF8257720683D
:1019B0000169C943C90617D4C168C943C90613D40C
:1019C0006FF010010161082020772068C06910F4D1
:1019D000407F204602D0FFF791FF04E000F042F87C
:1019E000204600F040F8257720680169C943C907FF
:1019F00008D1C168C943C90704D1891E01612046C5
:101A000000F032F820680169C943090609D4C168A9
:101A1000C943090605D46FF0800101612046FFF734
:101A2000FDFE20680169C943490609D4C168C9435C
:101A3000490605D46FF040010161204600F01EF810
:101A400020680169C94389060BD4C168C943890666
:101A500007D46FF0200101612046BDE87040FFF718
:101A6000DEBE70BD7047704700680349884201D1EF
:101A7000FFF75ABB7047000000000140704770B587
:101A8000040004D094F83D00002510B106E00120C8
:101A900070BD84F83C50204600F022F8242084F8E1
:101AA0003D002068C16821F40051C160204600F06B
:101AB000D5FC2068016921F49041016120684169E9
:101AC00021F02A0141612068C16841F40051C160E0
:101AD0002564202084F83D0084F83E00002070BD7D
:101AE00010B586B0044614216846FEF728FC174955
:101AF0002068884227D11648016841F4002101601E
:101B0000006800F40020059011481038016841F089
:101B1000010101600068022100F00100059003202E
:101B2000CDE900010121CDE90210082004906946A9
:101B30000848FEF7F9FF002205213420FFF77AFB61
:101B40003420FFF769FB06B010BD0000004C0040D8
:101B50004038024000000240FEE701684A69D24373
:101B600052050FD46FF480624A61002140F8301FA3
:101B7000202242738173026942F004020261017300
:101B800001207047002070472DE9F84F0446006897
:101B900089460B9D01689846174641F480610160B3
:101BA0002068016841F48071016000954FF0011BCD
:101BB0000022594620460A9B00F064F84FF4007A50
:101BC00040B120680068C00501D5C4F840A00320DA
:101BD000BDE8F88F216809F0FE0008612B4628490E
:101BE00020460A9A00F082F8F0BB206841698069BB
:101BF00000902A4620460A9900F0F6F840B1206C81
:101C000004283AD12068016841F40071016034E091
:101C1000FEB2B8F1010F09D02168380A08612A46DE
:101C200020460A9900F0E0F80028E8D12068066113
:101C30002A4620460A9900F0D7F80028DFD120680C
:101C4000016841F4807101600095002259462046E8
:101C50000A9B00F017F80028B3D1216809F0FF00B3
:101C600040F00100086100E007E02B4604492046EF
:101C70000A9A00F03BF80028AAD00120A8E700004B
:101C8000020001002DE9F0471E4690460D4604462D
:101C9000C1F30747DDF8209008E0701C06D0FFF77D
:101CA00049F8A0EB0900B0420FD876B12068012FA7
:101CB00018D0806925EA00000004000C14D000212F
:101CC0004145EAD00020BDE8F087002044F8300FFD
:101CD00020216173A073216941F0200121612073EB
:101CE0000120F0E74069E5E70121E9E72DE9F04748
:101CF0009A4691460E46044600254FF02008C1F34F
:101D0000074725E020684069C043400514D4206897
:101D1000016841F40071016021686FF480604861DE
:101D2000256384F83D8084F83E50206C40F0040028
:101D3000206484F83C501FE0B9F1FF3F08D0FEF763
:101D4000F9FFA0EB0A0149450CD8B9F1000F09D001
:101D50002068012F13D0806926EA00000004000CDF
:101D60000BD0CFE744F8305F84F80D80A57320696D
:101D700040F02000206125730120BDE8F087406914
:101D8000EAE72DE9F041002590460E46044620275B
:101D900017E04069C043C0060CD454F8301B6FF004
:101DA0001000486144F810596777A577206A2062CF
:101DB000257717E0FEF7BEFFA0EB0800B04208D879
:101DC0003EB120684169C9434906E2D40020BDE81C
:101DD000F08144F8305F6773A573206940F02000FC
:101DE000206125730120F2E770B516460D460446C2
:101DF0000DE02046FFF7B1FE08B1012070BD681C60
:101E000005D0FEF797FF801BA84207D835B12068A0
:101E10004069C0430006ECD4002070BD002044F8A7
:101E2000300F20216173A073216941F020012161ED
:101E30002073E2E703480068016C406C081A00F068
:101E40003F007047000000200121084600F0F0B874
:101E50000121022000F0ECB82DE9F04106AC94E835
:101E6000E0101E4CA061A180E28023622582668280
:101E7000A782A4F816C000F05FF802202070282086
:101E8000A0701420FEF73EFE032000F051F905205B
:101E9000FEF738FE032000F04BF90120FEF732FE7A
:101EA000032000F045F90120FEF72CFE022000F08F
:101EB0003FF90120FEF726FE0F2000F05DF901201A
:101EC00000F05AF90320FEF71DFE282000F054F917
:101ED000BDE8F0410320FEF715BE000038000020E9
:101EE00010B5094C0122E188A069FEF71DFF0A2008
:101EF00000F06CF80022E188A069FEF715FFBDE84C
:101F000010403C2000F062B8380000201FB50246A7
:101F100003A1684600F0D6FB684600F076F81FBDC6
:101F200025640000020003488188806900D00122F6
:101F3000FEF7FABE3800002000B587B005A9684654
:101F4000FFF744FA0398A8B3FFF760FA5FEA40008E
:101F5000FEF720FB9FED191B53EC112BFEF7A8FA9F
:101F6000FEF725FB17490A6842F002020A6016498B
:101F70000A6822F010020A600A6822F001020A6070
:101F80000A6822F004020A600A6842F008020A6045
:101F90000D492831401E08600920091D08600A49C2
:101FA000012014310860081F016821F0010101605F
:101FB00007B000BDFFE7FFF729FAC9E78DEDB5A02F
:101FC000F7C6B03E40380240000400400949401EB8
:101FD000086008481C38016821F0010101600549CA
:101FE0002C390A6842F001020A600168C907FCD076
:101FF000704700002C04004010B5012000F0BCF830
:10200000BDE810400320FEF77DBD70B506460024F4
:1020100009E00120FFF786FF284600F017F8641C4E
:10202000E4B2102C02D2355D002DF2D170BD00005B
:10203000491E01F00F01012804D041F0C00000BF8B
:1020400000F09AB841F08000FAE700002DE9F84F5F
:102050000209364C02F0080302F0040B217802F06A
:10206000020902F0010700F0080A00F0040600F07F
:10207000020500F00108009301292FD0022952D156
:102080003A46218A206AFEF74FFE4A46618A206A54
:10209000FEF74AFE5A46A18A206AFEF745FEE18A0B
:1020A000009A206AFEF740FEFFF71AFF4246218A97
:1020B000206AFEF739FE2A46618A206AFEF734FE5E
:1020C0003246A18A206AFEF72FFE5246E18A206A34
:1020D000FEF72AFEBDE8F84FFFF702BF424621890E
:1020E000E069FEF721FE2A466189E069FEF71CFEE1
:1020F0003246A189E069FEF717FE5246E189E069A0
:10210000FEF712FE3A46218A206AFEF70DFE4A4685
:10211000618A206AFEF708FE5A46A18A206AFEF705
:1021200003FE009AD2E7BDE8F88F000038000020D7
:1021300070B505460020FFF7F5FE0E4C05F00102D4
:10214000218A206AFEF7F0FD05F00202618A206A0A
:10215000FEF7EAFD05F00402A18A206AFEF7E4FD1D
:1021600005F00802E18A206AFEF7DEFDBDE8704056
:10217000FFF7B6BE3800002010B504460020FFF778
:10218000D1FE2046BDE81040FFF760BF2DE9F043C7
:1021900087B014216846FEF7D2F83348002401685E
:1021A00041F080010160016801F080010591016842
:1021B00041F001010160016801F001010591016830
:1021C00041F002010160016801F00201059101681E
:1021D00041F008010160016801F008010591016802
:1021E00041F0100101600068204F00F010004FF432
:1021F00070450590002229463846FEF795FDDFF828
:1022000070804FF44056002231464046FEF78CFD68
:10221000DFF86090002203214846FEF785FD009517
:102220000125CDE90154694638460394FEF77CFC4C
:10223000E802CDE90004694640460294FEF774FCCA
:102240000096CDE90154694640460394FEF76CFCC4
:1022500003200090CDE90154694648460394FEF7F7
:1022600063FC07B0BDE8F083303802400004024050
:10227000000C024000100240FEE7FEE70948084952
:10228000016048314160084801684A6942F0010232
:102290004A610068C16841F02001C16070470000D8
:1022A000EC00002000000020D001002010B55020DC
:1022B00080F31188BFF34F8FBFF36F8F02F0AAFC3A
:1022C00018B104494FF080500860002080F3118855
:1022D00010BD000004ED00E030B593B03021684639
:1022E000FEF72DF814210CA8FEF729F81D4800254B
:1022F000016841F080510160006800F08050119049
:102300001948016841F4804101600068022400F42A
:1023100080401190012003901020049000940694B6
:102320000820CDE907506C20CDE9090404200B906A
:102330006846FFF7BDF808B172B6FEE70CA90F209A
:1023400081E831004FF4A0500F904FF4805010906E
:1023500003210CA8FEF7A0FF002801D072B6FEE70B
:1023600013B030BD403802400070004002480168A0
:1023700041F470010160704788ED00E00148FFF70B
:10238000BEBA0000BC080020F0B50268254C264DFE
:10239000264E274F274B4FF0804CA04209D0604576
:1023A00007D0A84205D0B04203D0B84201D098422D
:1023B00004D122F0700E4A6842EA0E02A0421BD0FD
:1023C000604519D0A84217D0B04215D0B84213D0FA
:1023D000984211D0184DA8420ED0184DA8420BD0EB
:1023E000174DA84208D0174DA84205D0164DA84257
:1023F00002D0164DA84203D122F44075CA682A4380
:102400004D6922F080022A4302608A68C2620A682B
:102410008262A04201D0984201D109690163012181
:102420004161F0BD00000140000400400008004090
:10243000000C004000040140004001400044014005
:102440000048014000180040001C004000200040EF
:10245000014800F091B80000D001002070B504469A
:1024600000680169E26821F440511143016121696A
:10247000A068E26908436169114308432168CA689A
:1024800049F20C639A430243CA6020684169A26919
:1024900021F440711143416131492068884202D0E2
:1024A0003049884202D1FEF7C1FF01E0FEF7AEFFDE
:1024B000E2690023192164253226B2F5004F6268D3
:1024C00028D0A0FB0101930F9200FDF7DBFE01462F
:1024D000B0FBF5F06FF01802504301EB800006EB03
:1024E0000010B0FBF5F000F0F002B1FBF5F002EBEC
:1024F0000012B1FBF5F06FF01803584301EB8000B8
:1025000006EB0010B0FBF5F000F00F00216810445E
:10251000886070BDA0FB010192185B41FDF7B2FE1F
:102520000146B0FBF5F00201B1FBF5F06FF01803C6
:10253000584301EB800006EBC000B0FBF5F000F063
:10254000F80002EB4002B1FBF5F0584301EB8000CC
:1025500006EBC000B0FBF5F000F00700D6E7000086
:10256000001001400014014002480068416C016401
:10257000704700000000002010B401680B68CA68B2
:102580009C0609D5940607D5086848680F49C0B26B
:10259000096810BC01F086BB1B060AD5120608D5D7
:1025A0000B4A136C546CA34205D1C86820F080001C
:1025B000C86010BC7047516C536C515C5B1C03F0DD
:1025C0003F035364006802684160F2E700000020A6
:1025D0003401002005480068016C426C914202D130
:1025E0004FF0FF307047416C405C704700000020A6
:1025F00008480168086C4A6C904202D14FF0FF30E5
:102600007047486C4A6C085C521C02F03F024A64F6
:10261000704700000000002010B5044602E0641C72
:1026200000F004F820780028F9D110BD002811DB53
:10263000094949680A6C521C02F03F024B6C9342F4
:10264000FCD00B6CC8540A6404480068C16841F0AF
:102650008001C1607047000000000020D001002010
:10266000FEE7000070B505460024FDF773FE144E2A
:10267000034600BFFFF7DEFB0028FBD0FFF7AAFFF1
:10268000295D884210D03068416C491C01F03F013F
:102690004164EFE7641CFFF7ABFF9C420DD000BF25
:1026A000FFF7C8FB0028FBD0FFF794FF295D8842A5
:1026B000F0D09C4201D00024DCE7012070BD000076
:1026C000000000200FB4084B10B504A902AA03981B
:1026D00000F0EEF8044602A9002000F06CFC204651
:1026E00010BC5DF814FB0000B72F00080907090EA5
:1026F000002804DB00F1E02080F80014704700F0AF
:102700000F0000F1E02080F8141D704702E008C8B7
:10271000121F08C1002AFAD170477047002001E05B
:1027200001C1121F002AFBD1704700002DE9FF5F95
:1027300082B00021DDE90430020DDDF840B0034332
:1027400018D044F61050A2F2FF32424315141198EB
:1027500001281FD0A5EB0B00401C5FEA000A4FF0D8
:1027600000064E4FDFF83891B046504615D5CAF1F5
:10277000000413E0119801244AA3012801D16FEA53
:102780000B010298119AC0E90031C0E9024206B07B
:10279000BDE8F09FCBF10000DFE704460021404A8E
:1027A000491842EB0450CDE9001012E0E00707D0D1
:1027B00032463B4640464946FDF77AFE804689460A
:1027C00032463B4610461946FDF772FE06460F4656
:1027D0006410002CEAD1DDE90401DDE90023BAF13F
:1027E000000F06DAFDF764FE42464B46FDF760FE39
:1027F00005E0FDF7ECFF42464B46FDF7E8FF0446D7
:102800000E460022284BFEF769F803D84FF0FF3040
:10281000014607E00022254B20463146FDF7A1FD89
:10282000FEF744F8102409E0002C0ADB0A220023FA
:10283000FDF728FD039B30321A55641E50EA010251
:10284000F2D1641C039AC4F111031444119A012AB1
:1028500003D0012208430DD10AE0084304D0002030
:102860004FF0110B119072E7A3EB0B056D1E0DE0FD
:102870005B4504DD4FF0000205F1010504E003DAD9
:102880004FF00002A5F10105002AECD00298119941
:10289000C0E90231C0E9004579E7000000001440BA
:1028A0000000F03F300000000000F0430000E03F77
:1028B0002DE9FF4F95B09A46884606460025EEE181
:1028C000252877D100242746F94A0121039400E006
:1028D000044316F8013F203B01FA03F01042F7D100
:1028E00030782A2811D06FF02F033078A0F1300211
:1028F000092A16D8039A44F0020402EB820203EB81
:1029000042021044761C0390EFE758F8042B039220
:10291000002A03DA504244F40054039044F00204C5
:10292000761C30782E2816D116F8010F44F00404D6
:102930002A280DD06FF02F023078A0F13003092B38
:1029400009D807EB870302EB4303C718761CF3E7AC
:1029500058F8047B761C30786C280FD006DC4C28A5
:1029600017D068280DD06A2814D104E0742810D03C
:102970007A280FD10DE044F400140AE044F48014E6
:1029800001E044F440147278824202D104F58014CC
:10299000761C761C307866280BD013DC582877D04C
:1029A00009DC002875D04528F6D04628F4D0472801
:1029B0001AD193E118E0632835D0642879D06528CE
:1029C00012D18BE1702873D008DC6728F1D0692818
:1029D0006FD06E280DD06F2806D1ACE073282CD0B4
:1029E000752874D0782853D05246179990476D1C9B
:1029F00054E1C4F30250022809D003280DD0D8F8BE
:102A0000001004280DD00D6008F1040846E1D8F844
:102A10000010EA17C1E90052F6E7D8F800100D805F
:102A2000F2E70D70F0E718F8041B8DF80010002095
:102A30008DF80100EB46012003E058F804BB4FF08D
:102A4000FF3061074FF0000102D40DE009F10101F0
:102A50008946B9420FDA8145F8DB1BF809100029D5
:102A6000F4D108E009F1010189468142FADB1BF843
:102A700009100029F6D103985346A0EB0907214617
:102A80003846179A00F080FA284400EB090507E061
:102A900044E008E10DE01BF8010B524617999047FE
:102AA000B9F10109F7D2534621463846179AF2E0A8
:102AB00039E00A21C4F302524FF0000B0091022AC0
:102AC00006D058F8040BC117032A09D00AE023E006
:102AD00008F1070020F00702F2E80201904605E045
:102AE00000B2C117042A01D140B2C117002906DA89
:102AF0000A460021404261EB02012D2202E022053C
:102B000004D52B228DF80420012203E0E20701D036
:102B10002022F7E7914657E00A2100E010214FF00C
:102B2000000B00910BE010214FF0000B44F0040467
:102B30000827009103E008204FF0000B0090C4F339
:102B40000252022A05D058F8040B0021032A08D0AB
:102B500008E008F1070020F00702F2E802019046C1
:102B600003E080B2042A00D1C0B24FF0000922076E
:102B70002AD53278702A07D0DDF800C08CF0100C0E
:102B80005CEA0B0C05D00EE040228DF804200122F7
:102B900008E050EA010306D030238DF804308DF8A8
:102BA000052002229146009B83F0080353EA0B03A1
:102BB0000AD150EA010201D1620705D530228DF811
:102BC00004204FF001097F1E3278582A04D039A220
:102BD0000C920CAA02920BE03BA2F9E75B46009A2A
:102BE000FDF750FB0C9B9B5C029A521E02921370E5
:102BF00050EA0102F2D1029804A9081A00F1200B50
:102C0000600702D524F4803400E001275F4502DD2F
:102C1000A7EB0B0000E0002000EB0B0100900398F5
:102C20004944401A0390E00306D453462146179ABC
:102C3000039800F0A9F90544002706E001A85246D0
:102C4000C05D179990476D1C7F1C4F45F6DBE00374
:102C50000CD553462146179A039800F095F9054480
:102C600004E030205246179990476D1C0099481E89
:102C700000900029F5DC08E002980299524600789D
:102C8000491C0291179990476D1CBBF10001ABF1F3
:102C9000010BF1DC5BE100F065F90544761C30784E
:102CA00000287FF40DAE19B02846BDE8F08F000073
:102CB0000928010030313233343536373839616212
:102CC00063646566000000003031323334353637D6
:102CD000383941424344454600000000600700D4B3
:102CE000062708F1070020F00700F0E802238046DD
:102CF00003F0004C5FEA0C0001D097A009E020052A
:102D000001D596A005E0E00701D095A001E0AFF263
:102D10004C001390307823F0004365280CD006DC7B
:102D2000452809D046281DD047287FD13BE066289A
:102D300018D067287AD136E00021112F01DB11204D
:102D400000E0781CCDE9000104A90CA8FFF7EEFC17
:102D5000DDE90D010C9A4FF0000B07F1010910920B
:102D600000914EE04FF000400097CDE9011004A91A
:102D70000CA8FFF7DBFCDDE90D020C9B0F994FF06F
:102D8000000B91461093009211B9791C00EB0109D8
:102D9000B7EB090003D4C0F1FF3B07F10109A9EB30
:102DA0000700019042E0012F00DA01270021112FD6
:102DB00001DD112000E03846CDE9000104A90CA88E
:102DC000FFF7B4FCDDE90D010C9A00914FF0000B08
:102DD000B946109221070FD4009A4A4503DA91466A
:102DE00001E0A9F10109B9F1010F05DD109AA9F17E
:102DF0000101515C3029F4D0B84202DA10F1040F1D
:102E000003DA0121CDE9011010E0002803DC83443E
:102E1000A9EB000102E0411C494500DD8946A0EB19
:102E20000B00401C01904FF000400290200705D499
:102E30000198484502DB4FF0FF30019000208DF8EB
:102E40004B0002980DF14B07B0F1004F25D0022046
:102E50000C902B200D90029800280CDA4042029032
:102E60002D200D9007E00A210298FDF7D5FB3031A7
:102E7000029007F8011D0C99481E0C900029F2DC05
:102E800002980028EFD1791E0D980870307800F074
:102E9000200040F0450007F8020D11A8C01BC01D1E
:102EA00002901398007800B1012000EB090101980D
:102EB00001EBE071029801440398401A401E039010
:102EC000E00306D453462146179A039800F05CF8B5
:102ED00005441398007818B15246179990476D1C15
:102EE000E00323D553462146179A039800F04CF887
:102EF00005441BE0BBF1000F07DB0098584504DDDB
:102F00001098179910F80B0001E0179930205246DD
:102F1000904701980BF1010B401E05F1010501904E
:102F200004D12E205246179990476D1CB9F100012B
:102F3000A9F10109DEDC05E017F8010B52461799EB
:102F400090476D1C0299481E02900029F4DC5346FC
:102F50002146179A03989EE62D0000002B000000E2
:102F6000200000002DE9F041044600251E461746CA
:102F7000880404D405E039462020B0476D1C641E47
:102F8000F9D52846BDE8F0812DE9F0410446002539
:102F90001E469046C80301D5302700E0202788044C
:102FA00004D505E041463846B0476D1C641EF9D58E
:102FB0002846BDE8F0810A68531C0B60107070470A
:102FC00010B50446FDF7C6F900210A4601E0625437
:102FD000491C8142FBDB10BD10B5FDF785F964216A
:102FE00090FBF1F201FB12000149086110BD0000E5
:102FF000080000203EB5124C642003210094CDE966
:10300000011001230722B5210E48FDF75DFF20883E
:10301000083CE080FDF7BEFA9FED0B1B53EC112B33
:10302000FDF746FA9FED0A1B53EC112BFDF73AFA18
:10303000FDF7D6FA00EE100A84ED0B0A3EBD000043
:10304000100000207C0100207B14AE47E17A943F01
:103050006666666666127140EFF30580002800D050
:10306000012070479CB0FEF767F8FFF735F9FFF7CE
:103070008DF843484149002401604249C0E90114E8
:103080004FF48045C0E9034544618461C461046232
:10309000FDF756FE08B172B6FEE739483A4954309A
:1030A00001604FF4E131C0E901140C21C460C0E9B2
:1030B00004418461C461FEF7E2FC08B172B6FEE728
:1030C0004FF400408110C210CDE90021CDE902503B
:1030D0002E4B022201212E48FEF7BEFEFEF78CFF8A
:1030E0004FF47A70FDF70EFD2AA0FEF78EFFFEF773
:1030F000AFFE2DA0FEF789FF41F28830FDF702FDFB
:10310000FEF77AFFFEF7A0FE2CA0FEF77EFFFEF78B
:103110009FFE2EA0FEF779FF31A134A0FDF70AFC37
:10312000FEF76AFF1994012119A81A9400F078F8A3
:10313000304C1C223049206204A8FDF7E7F800213A
:1031400004A800F0E7F82C4960611C221C310BA890
:10315000FDF7DCF800210BA800F0DCF82649A0619F
:103160001C22383112A8FDF7D1F8002112A800F076
:10317000D1F8E06100F04FF8FEE700000054004095
:103180007C010020A0860100004C004000040240A9
:10319000001002405468696E6B20506F7369746947
:1031A00076652E2E2E000000546F206265204E6141
:1031B0006761746976652E2E2E000000202020574E
:1031C000656C636F6D652020000000005379737497
:1031D000656D204C6F6164696E672E2E00000000E3
:1031E00031323334353637380000000076696E618D
:1031F00079616B0008000020FC4F000801460020A8
:10320000842900D0C81C704710B500B9012000F017
:10321000E5FE002010BD10B500F098FF002010BDA5
:1032200038B543684BB1012909D103200022009031
:103230001146012001F0CDF838BD012901D0002050
:1032400038BD03220021012001F0A2F8040004D0BF
:1032500000231A46194601F033F9204638BD000014
:1032600038B5002405460094FFF7F6FE90B1694694
:10327000284601F034FA012801D0FF2038BD00981B
:1032800088B10A494FF080500860BFF34F8FBFF3F9
:103290006F8F08E000231A461946284601F010F9FE
:1032A000012800D0FF24204638BD000004ED00E0D6
:1032B00038B505004FF0000000900FD00024481CE6
:1032C0000ED001B10C46FFF7C7FEB8B16A46002127
:1032D000284601F0EFFA012816D104E0802038BD1D
:1032E0004FF0FF34EFE7009880B109494FF080506C
:1032F0000860BFF34F8FBFF36F8F07E0214628466A
:1033000001F026FB012801D0FF2038BD002038BD88
:1033100004ED00E07FB50D4604464169B0F90800B0
:1033200081B1A16971B1FFF769FFD4E905128DE898
:103330000700D4E900102B46226901F02CFC039011
:1033400004B070BDFFF75AFF03A9CDE90001208A40
:103350002B4682B2D4E9001001F0F0FB012801D025
:103360000020EDE70398EBE71D4F1E4C4FF0FF35B3
:103370004FF4805641F270782946206AFFF798FF93
:10338000FFF72AFE20695A2801DC012200E0002212
:1033900031463846FDF7C8FCFEF75AFD12A0FEF78D
:1033A00034FE2069FEF7B2FD11A0FEF72EFEE068A4
:1033B000FEF7ACFDE0680421401CE060208A82B288
:1033C0000DA0FDF71BFB228803210BA0FDF716FBC8
:1033D000206AFFF745FF4046FFF716FFCCE70000E5
:1033E000000C0240080000204852203A2000000053
:1033F000204F58593A2000003856573538514A3135
:103400004E33574933393231000000002DE9F04185
:10341000184C0F460546E6682068001D00F0AAFC1F
:1034200038B9206890F82C10012088402169814328
:103430002161681C07D137B12168BDE8F0410E4811
:10344000091D00F0E7BC20683544B542456021689D
:1034500005D2A06BBDE8F041091D00F0C3BC606B54
:10346000091D00F0BFFCA06A854200D2A562BDE83C
:10347000F08100006C000020200A00202DE9F041BE
:10348000054600F0D3FC2E4CA068401CA0602068CC
:103490002C4F10B1606940B32DE02560A068012871
:1034A00029D1002606EB860007EB800000F08CFC9B
:1034B000761C072EF6D323488C3000F085FC21487B
:1034C000A03000F081FC1F48B43000F07DFC1D48A6
:1034D000C83000F079FC1B48DC3000F075FC19485E
:1034E0008C3060631430A06305E02068E96AC06A2C
:1034F000884200D82560606A401C6062E96A012049
:10350000226988401043206101EB810007EB8000B5
:10351000291D00F07FFC00F0A9FC606900280CD098
:103520002068E96AC06A884207D207494FF0805094
:103530000860BFF34F8FBFF36F8FBDE8F0810000CD
:103540006C0000204409002004ED00E038B500F0D4
:103550006DFC104C2068C8B90F4800F035FC0E48CF
:10356000143000F031FC0C48E060143020610A4B4C
:103570000020C03B009003F148020C210A2000F01B
:1035800028FF206010B105A100F0F2FCBDE8384032
:1035900000F06CBCA8000020F40A0020546D7251A9
:1035A0000000000030B4026C0B46002A0BD0C1684A
:1035B0001144C1608468A14201D30168C16030BC7C
:1035C0001846FCF7A3BE30BC70472DE9F041856B6F
:1035D000174604460026026C82B1C7B1E068FCF7CA
:1035E00095FEE168206C091AE1602268914202D2DE
:1035F000A168081AE060022F16D017E02068A8B969
:10360000A06801F06DFB06460020A0600EE0606837
:10361000FCF77CFE216C606808446060A168884209
:1036200004D32068606001E005B16D1E6D1CA563C8
:103630003046BDE8F08110B5044690F8510058B10D
:1036400001280CD002280FD0502080F31188BFF33E
:103650004F8FBFF36F8FFEE7206B00F01BFC2046FF
:10366000BDE8104000F016BC10BD000010484FF43B
:103670007051420706D0C01D0D4920F00700411AC5
:10368000C1F570510B4A00230144C2E90003083917
:10369000183A21F0070111604B600B600B1AC0E96A
:1036A000001393604FF0004053605061704700007A
:1036B0001C0B0020D4000020144E154CA6F1C807A6
:1036C0004FF08058DFF84C9012E000BF00F0AEFBE6
:1036D000F068C568281D00F04DFBA068401EA06082
:1036E0006068401E606000F0C1FB2846FFF7A3FF42
:1036F00060680028EAD138680128F9D9C9F8008043
:10370000BFF34F8FBFF36F8FF2E700000C0A00206A
:103710006C00002004ED00E00346009829B102602F
:10372000C0E90F31012100F087BE0060F8E72DE904
:10373000F0479A46DDE9098481466FF00303206B68
:1037400003EB82021044089E20F00707780707D099
:10375000502080F31188BFF34F8FBFF36F8FFEE7C8
:10376000002561B1002023180A5C83F834200A5C2C
:1037700012B1401C1028F6D384F8435001E084F8BD
:103780003450072E00D30626E662C4E91165201DD9
:1037900000F025FB04F1180000F021FB2461C6F1C4
:1037A00007006462A061E56484F8505052464946BF
:1037B000384600F061FA2060B8F1000F01D0C8F877
:1037C0000040BDE8F087000030B5114900E0114627
:1037D0000A688242FBD34B685C18844203D140687C
:1037E00018444860084643681C18944209D1084CA4
:1037F000183C2468A24209D052681A4442600A6800
:1038000012680260814200D0086030BD0460F9E7B0
:10381000D400002070B5002441600B4D006191423E
:1038200006D8D11A8269914206D2011D286907E0A3
:103830009A4203D2994201D3012403E0011DE868B2
:1038400000F0D0FA204670BDA800002010B5044654
:1038500000F0ECFAA06B28B15FF0000400F006FB6A
:10386000204610BD0124F9E730B587B0394D67E037
:103870000498002864DB069C606910B1201D00F0EC
:1038800079FA03A800F0D8F8024604980A2857D21B
:10389000DFE800F00505052D334A05052D3394F8C2
:1038A000240040F0010084F824000599A069059BDC
:1038B00001442046FFF7AEFF68B3216A20468847DF
:1038C00094F8240040073BD5002000900598A1699A
:1038D000002342181946204601F060FBD8B9502059
:1038E00080F31188BFF34F8FBFF36F8FFEE714F89B
:1038F000240F20F00100207022E094F8240040F012
:10390000010084F824000598A06128B181181346AD
:103910002046FFF77FFF13E0502080F31188BFF3AC
:103920004F8FBFF36F8FFEE794F82400810703D415
:10393000204600F0AFFA03E020F0010084F82400F4
:10394000002204A9286800F019FF002890D107B0D0
:1039500030BD0000A80000202DE9FC410F460546BF
:1039600000F038FC01A800F067F80446019818B18F
:1039700001F082FABDE8FC81254EAFB130690068E4
:10398000D0B30027291B3A46306800F005FB01F050
:1039900073FA0028EED11F494FF080500860BFF342
:1039A0004F8FBFF36F8FE5E7A542EBD801F064FAC4
:1039B000F0682746C068C468201D00F0DBF994F861
:1039C0002400410719D5A0692B4641193A462046E3
:1039D000FFF720FFA8B100200346014600902A46C9
:1039E000204601F0DBFA60B9502080F31188BFF364
:1039F0004F8FBFF36F8FFEE707E020F0010084F8E0
:103A00002400216A20468847B4E70127BAE700006E
:103A1000A800002004ED00E00648416B096829B1C8
:103A2000416BC968C9684968816270474FF0FF31CE
:103A3000FAE700006C00002070B5054601F0E4F8DC
:103A4000064E0446B068844203D200F009F8012013
:103A500000E0002028602046B46070BDA80000206F
:103A6000F8B5194D20E0C068C4680668201D00F054
:103A700081F9216A2046884794F82400400713D52D
:103A8000A0693044B04206D924616060211DE86815
:103A900000F0A8F908E000200346014600903246F5
:103AA000204601F07BFA38B1E86801680029DAD1D4
:103AB0002969C5E90310F8BD502080F31188BFF3D0
:103AC0004F8FBFF36F8FFEE7A800002008484068C3
:103AD000401C4FF0500080F3118804D0BFF34F8F8B
:103AE000BFF36F8FFEE7BFF34F8FBFF36F8FFEE71C
:103AF000DC000020074CE068016841B1C06800218B
:103B0000D0F80000FFF728FFFFF7AEFEF3E7012132
:103B10000020F7E7A80000202DE9F041044600F05E
:103B200085F994F9455004F1240609E0606A48B12A
:103B3000304601F067F908B100F07EFA6D1E6DB2F3
:103B4000002DF3DC4FF0FF3684F8456000F08EF96D
:103B500000F06CF994F9445004F1100709E0206971
:103B600048B1384601F04EF908B100F065FA6D1E13
:103B70006DB2002DF3DC84F84460BDE8F04100F044
:103B800075B900002DE9F0410546002700F022FB41
:103B9000324E306808B9FFF769FD706905424ED1B1
:103BA000C5B3083568070ED005F00700C0F108005E
:103BB0000544680707D0502080F31188BFF34F8F6A
:103BC000BFF36F8FFEE72DB37068854237D8234867
:103BD000183001460C6801E020460C466168A94295
:103BE00002D221680029F7D131688C4227D00768BA
:103BF0002168016060680837411B10290FD96019DE
:103C0000420708D0502080F31188BFF34F8FBFF3D5
:103C10006F8FFEE713E041606560FFF7D5FD6168D7
:103C20007068401A7060B268904200D2B0607069EB
:103C300001430020C4E90001F068401CF06001F07D
:103C40001BF9780707D0502080F31188BFF34F8FFE
:103C5000BFF36F8FFEE73846BDE8F081BC0000205F
:103C60000449086818B10868826C521C82640868AC
:103C7000704700006C00002010B5031F4FF08074E7
:103C80001C601B1F21F001011960191F044B0B6000
:103C900014390A60091F6FF0020244380A6010BD2F
:103CA000CD3A00080A6C4B6C521C02F03F02934262
:103CB00002D00B6CC8540A6470470000224F234C9A
:103CC0004FF0FF354FF480564FF47A682946206A4A
:103CD000FFF7EEFA07215A20FFF78CF984ED090A65
:103CE000BCEEC00A10EE100A80B26080182801D91C
:103CF0002D2801D8012200E0002231463846FDF788
:103D000013F806215A20FFF775F984ED0A0ABCEE74
:103D1000C00A10EE100AA080FEF796F80CA0FEF77D
:103D200074F96088FEF7F2F80BA0FEF76EF962886E
:103D300001210BA0FCF762FE206AFFF791FA4046D2
:103D400000F04CF9C2E70000000C0240080000201F
:103D50004254203A20000000205254203A20000013
:103D60003856573538514A314E3357493339323145
:103D700000000000D0E9013201699A60D0E9012316
:103D80005A604A68824201D182684A600022026118
:103D90000868401E0860086870470000034B036015
:103DA00003F1540008608020106070471402002066
:103DB000044B036003F1540008604FF480701060FE
:103DC000704700006804002000F108014FF0FF3246
:103DD000C0E90112C160016100210160704700214A
:103DE0000161704730B50B685A1C02D000F108021F
:103DF00002E0026904E02246546825689D42FAD92F
:103E000053684B6099608A60516008610168491C81
:103E1000016030BD42684A6093688B609368596066
:103E2000916008610168491C01607047502080F36F
:103E30001188BFF34F8FBFF36F8F0A494868401C4A
:103E4000486001280CD10848006810F0FF0F07D027
:103E5000502080F31188BFF34F8FBFF36F8FFEE7C1
:103E600070470000DC00002004ED00E008494868CD
:103E700028B1401E486001D180F31188704750205E
:103E800080F31188BFF34F8FBFF36F8FFEE7000001
:103E9000DC00002070B500282AD0164DA0F10804DF
:103EA00060686969084207D1502080F31188BFF328
:103EB0004F8FBFF36F8FFEE722683AB1502080F337
:103EC0001188BFF34F8FBFF36F8FFEE788436060A9
:103ED00000F080F960686968084468602046FFF770
:103EE00073FC2869401C2861BDE8704000F0C4BF25
:103EF00070BD0000BC0000204FF0E02000210161F7
:103F0000816105494FF47A720968B1FBF2F1491EEB
:103F100041610721016170476800002010B5FCF77E
:103F20009BF9114910280ED300F1E02090F8F0031E
:103F30000A78904207D2502080F31188BFF34F8F48
:103F4000BFF36F8FFEE709480068896800F4E060FE
:103F5000884207D9502080F31188BFF34F8FBFF3F9
:103F60006F8FFEE710BD0000DC0000200CED00E0CC
:103F700010B5084B002200BF53F832401CB1521C50
:103F8000082AF9D310BD43F8321003EBC201486090
:103F900010BD00000409002070B515460E46044609
:103FA000FFF744FF94F944100020491C01D184F824
:103FB000440094F94510491C01D184F84500FFF7ED
:103FC00055FFA06B28B92A46314604F1240000F0C1
:103FD00051F82046BDE87040FFF79EBD10B50200C5
:103FE00014D00F48006B38B1502080F31188BFF314
:103FF0004F8FBFF36F8FFEE700F0ECF80021104603
:10400000FFF704FA00F038FF002807D105494FF008
:1040100080500860BFF34F8FBFF36F8F10BD00005B
:104020006C00002004ED00E002490A6A0260C968E1
:10403000416070476C00002001490120C861704751
:104040006C00002010B50C4650B1094909681831C0
:10405000FFF7C8FE2046BDE810400121FFF7D6B9A2
:10406000502080F31188BFF34F8FBFF36F8FFEE7AF
:104070006C00002070B514460D4668B10A49096805
:104080001831FFF7C7FE0CB14FF0FF352146284627
:10409000BDE87040FFF7BAB9502080F31188BFF334
:1040A0004F8FBFF36F8FFEE76C00002070B50400E8
:1040B00047D0A26CA2B1606C884200D30146E06A8E
:1040C00088423ED0012A3CD11E4D2A6894420FD12D
:1040D000502080F31188BFF34F8FBFF36F8FFEE73F
:1040E000502080F31188BFF34F8FBFF36F8FFEE72F
:1040F000E162A269002A02DBC1F10701A161124E4F
:1041000000EB8000616906EB8000814219D1201D1F
:10411000FFF730FE012130B994F82C002A6901FA2A
:1041200000F082432A61E06A2A69814011432961D3
:1041300000EB800006EB8000211DBDE87040FFF71A
:1041400069BE70BD6C0000204409002030B587B006
:104150000024039405AA04A903A80494FFF71EFEF3
:10416000DDE903010094CDE90110002315A11748F2
:10417000059A00F010FD164D0028E8621FD000F0EF
:10418000DDFE012809D0401C19D1502080F3118890
:10419000BFF34F8FBFF36F8FFEE7502080F311887E
:1041A000BFF34F8FBFF36F8F4FF0FF30A862012036
:1041B0006861EC6007B0BDE8304000F06FB807B050
:1041C00030BD000049444C4500000000B9360008ED
:1041D0006C0000200248016B491C0163704700001D
:1041E0006C0000201448016B11B10121C1617047BE
:1041F0000021C1610169B1FA81F1C1F11F0101EB37
:1042000081020E4951F822306BB101EB820101F1BC
:1042100008034A6852684A609A4201D152684A606B
:10422000D16801607047502080F31188BFF34F8F31
:10423000BFF36F8FFEE700006C00002044090020F0
:104240000F4C104F4FF0FF354FF4005643F69828AF
:104250002946206AFFF72CF8A088FDF757FE314663
:104260003846FCF759FDA288022107A0FCF7C6FBDF
:10427000206AFEF7F5FF4046FEF7C6FFE8E70000BC
:1042800008000020000C02403856573538514A319A
:104290004E33574933393231000000001CB53748DE
:1042A0000168374A914207D1502080F31188BFF34B
:1042B0004F8FBFF36F8FFEE700683149491E884278
:1042C00007D1502080F31188BFF34F8FBFF36F8F5A
:1042D000FEE72C4908780190FF20087008788DF8D7
:1042E00000009DF800009DF8002000F0F0009042D2
:1042F00007D0502080F31188BFF34F8FBFF36F8F2B
:10430000FEE79DF80000204C00F0500020700720D0
:10431000A06005E09DF8002052008DF80020401EAE
:104320009DF800201206F5D4A060032807D0502085
:1043300080F31188BFF34F8FBFF36F8FFEE74FF409
:104340004070A060019808700C482030016841F46A
:1043500070010160016841F070410160FFF7CCFD20
:1043600000206060FBF740FF0848016841F04041D1
:104370000160FBF725FF00201CBD000000ED00E000
:1043800071C20F4100E400E0DC00002034EF00E0E7
:10439000F8B517460E46050013D005FB06F0483069
:1043A000FFF7F0FB04000AD0002084F8460004F177
:1043B00048023B46314628460094FFF7ADF92046B7
:1043C000F8BD502080F31188BFF34F8FBFF36F8F7C
:1043D000FEE738B5049D18B153B1CAB181B120E0F0
:1043E000502080F31188BFF34F8FBFF36F8FFEE72C
:1043F000502080F31188BFF34F8FBFF36F8FFEE71C
:10440000502080F31188BFF34F8FBFF36F8FFEE70B
:1044100039B1502080F31188BFF34F8FBFF36F8FF6
:10442000FEE748241C46012384F846302B460094BE
:10443000FFF772F9204638BD70B50D46040025D04F
:10444000FFF7F4FCD4E90F20216802FB0011A16002
:104450000021A163216861600A46D4E90F01401E72
:1044600000FB0121E16021464FF0FF3001F8440FCD
:10447000487004F110008DB1FFF7A6FC04F1240090
:10448000FFF7A2FCFFF7F2FC012070BD502080F383
:104490001188BFF34F8FBFF36F8FFEE721690029AB
:1044A000F0D000F0AFFC0028ECD004494FF0805071
:1044B0000860BFF34F8FBFF36F8FE3E704ED00E0B9
:1044C0002DE9FF4782B01D468A464FF000080400E0
:1044D00003D0BAF1000F08D011E0502080F311880A
:1044E000BFF34F8FBFF36F8FFEE7206C38B15020C2
:1044F00080F31188BFF34F8FBFF36F8FFEE7022D5C
:104500000AD1E06B012807D0502080F31188BFF357
:104510004F8FBFF36F8FFEE700F068FB3F4F4FF008
:1045200000094FF0805648B9049838B1502080F304
:104530001188BFF34F8FBFF36F8FFEE7FFF776FC55
:10454000A06BE16B884207D3022D05D00498D0B14F
:10455000B8F1000F1AD01EE02A4651462046FFF758
:1045600034F8616A19B104F1240000F04BFC20B169
:104570003E60BFF34F8FBFF36F8FFFF777FC0120D3
:1045800006B0BDE8F087FFF771FC22E06846FFF750
:104590004BFD4FF00108FFF769FCFFF71BFEFFF72B
:1045A00045FC94F94400401C01D184F8449094F9EE
:1045B0004500401C01D184F84590FFF757FC04A941
:1045C000684600F081FA30B12046FFF7A5FA00F006
:1045D00053FC0020D4E7FFF729FCA06BE16B884275
:1045E00013D1FFF743FC04F110000499FFF72AFDF3
:1045F0002046FFF791FA00F03FFC00289ED13E6074
:10460000BFF34F8FBFF36F8F98E7FFF72FFC204664
:10461000FFF782FA00F030FC90E7000004ED00E0C4
:104620002DE9F0471F4690468946040003D0B9F1B2
:10463000000F08D011E0502080F31188BFF34F8F96
:10464000BFF36F8FFEE7206C38B1502080F31188E4
:10465000BFF34F8FBFF36F8FFEE7022F0AD1E06BDE
:10466000012807D0502080F31188BFF34F8FBFF38C
:104670006F8FFEE7FFF752FC5020EFF3118680F3B7
:104680001188BFF34F8FBFF36F8FA06BE16B884230
:1046900006D3022F04D0002086F31188BDE8F087EE
:1046A00094F94550A06B3A4649462046FEF78DFFE7
:1046B000681C04D06D1C84F845500120ECE7606A4A
:1046C0000028FAD004F1240000F09CFB0028F4D06C
:1046D000B8F1000FF1D00121C8F80010EDE770B576
:1046E0000E46040009D0206C78B1502080F3118868
:1046F000BFF34F8FBFF36F8FFEE7502080F3118819
:10470000BFF34F8FBFF36F8FFEE7206848B9A068F3
:1047100038B1502080F31188BFF34F8FBFF36F8FF4
:10472000FEE7FFF7FBFB5020EFF3118580F31188C4
:10473000BFF34F8FBFF36F8FA16BE06B884218D927
:1047400094F94500491CA163411C04D0401C84F825
:10475000450001200EE0606A0028FAD004F1240030
:1047600000F050FB0028F4D0002EF2D00120306081
:10477000EFE7002085F3118870BD00002DE9F747B1
:10478000002683B08A46040003D0BAF1000F08D097
:1047900011E0502080F31188BFF34F8FBFF36F8F6C
:1047A000FEE7206C38B1502080F31188BFF34F8FA3
:1047B000BFF36F8FFEE700F019FADFF8F4804FF0D7
:1047C00000094FF0805748B9059838B1502080F360
:1047D0001188BFF34F8FBFF36F8FFEE7FFF726FB04
:1047E000A56BC5B151462046FEF7DCFE6D1EA563E4
:1047F000206950B104F1100000F004FB28B1C8F8A2
:104800000070BFF34F8FBFF36F8FFFF72FFB0120B7
:1048100006B0BDE8F087059808B11EB106E0FFF7C5
:1048200025FB27E06846FFF7FFFB0126FFF71EFB8D
:10483000FFF7D0FCFFF7FAFA94F94400401C01D1CD
:1048400084F8449094F94500401C01D184F84590C7
:10485000FFF70CFB05A9684600F036F90028204652
:104860000AD0FFF759F900F007FB2046FEF7EEFFEC
:104870000028B3D00020CBE7FEF7E8FF90B104F1A9
:1048800024000599FFF7DEFB2046FFF745F900F00D
:10489000F3FA0028A2D1C8F80070BFF34F8FBFF31E
:1048A0006F8F9BE72046FFF737F900F0E5FA95E7B1
:1048B00004ED00E02DE9F04790468946040003D05E
:1048C000B9F1000F08D011E0502080F31188BFF338
:1048D0004F8FBFF36F8FFEE7206C38B1502080F30D
:1048E0001188BFF34F8FBFF36F8FFEE7FFF716FB03
:1048F0005020EFF3118680F31188BFF34F8FBFF381
:104900006F8FA76BF7B194F9445049462046FEF7E4
:1049100049FE7F1EA763681C04D06D1C84F84450B8
:10492000012010E020690028FAD004F1100000F006
:1049300069FA0028F4D0B8F1000FF1D00121C8F8CD
:104940000010EDE7002086F31188BDE8F087000035
:104950002DE9F343002683B00400354609D0206CCE
:1049600078B1502080F31188BFF34F8FBFF36F8F62
:10497000FEE7502080F31188BFF34F8FBFF36F8F96
:10498000FEE700F033F9DFF83C814FF000094FF00B
:10499000805748B9049838B1502080F31188BFF38C
:1049A0004F8FBFF36F8FFEE7FFF740FAA06BC8B1E0
:1049B000401EA063206810B9FFF752F9A06020697B
:1049C00050B104F1100000F01DFA28B1C8F80070D1
:1049D000BFF34F8FBFF36F8FFFF748FA012005B089
:1049E000BDE8F083049808B166B10FE03DB15020F6
:1049F00080F31188BFF34F8FBFF36F8FFEE7FFF790
:104A000035FA5DE06846FFF70FFB0126FFF72EFA47
:104A1000FFF7E0FBFFF70AFA94F94400401C01D1CC
:104A200084F8449094F94500401C01D184F84590E5
:104A3000FFF71CFA04A9684600F046F80028204653
:104A400012D0FFF769F800F017FA2046FEF7FEFED5
:104A50000028A9D09DB3FFF7E9F9606A50B3206B35
:104A60000068C0F1070126E0FEF7F0FEE0B1206823
:104A700038B9FFF7DBF9A06800F07EF90546FFF7CB
:104A8000F5F904F124000499FFF7DCFA2046FFF75A
:104A900043F800F0F1F9002886D1C8F80070BFF3A0
:104AA0004F8FBFF36F8F7FE72046FFF735F800F099
:104AB000E3F979E70021A068FFF7F8FA9FE7FFE73D
:104AC00000208CE704ED00E02DE9F0410C460500E4
:104AD00011D0C4B1FFF7AAF9174BDA686E682068E5
:104AE000911B471C17D02F681B6A9F4219D0964212
:104AF00017D8012410E0502080F31188BFF34F8FA6
:104B0000BFF36F8FFEE7502080F31188BFF34F8F04
:104B1000BFF36F8FFEE70024FFF7A8F92046BDE83A
:104B2000F081884205D9401A20602846FFF77CFAB8
:104B3000F1E700202060DCE76C0000202DE9FF5F3A
:104B40008346DDE90E87994616468A469000FFF7B0
:104B500019F805001CD05420FFF714F8040014D0F5
:104B60000020256384F85100CDE90240CDE900879B
:104B70004B46324651465846FEF7D9FD2046FEF7D1
:104B80007DFC012004B0BDE8F09F2846FFF782F9C4
:104B90004FF0FF30F6E7F0B585B0DDE90B640A9D14
:104BA000A6B1DCB1542700972663022684F8516031
:104BB000002604AFCDE90246CDE90057FEF7B7FD68
:104BC0002046FEF75BFC049805B0F0BD502080F352
:104BD0001188BFF34F8FBFF36F8FFEE7502080F334
:104BE0001188BFF34F8FBFF36F8FFEE70548416910
:104BF00019B1006B18B100207047012070470220E6
:104C0000704700006C0000200148C0687047000039
:104C10006C0000202DE9F0412F4C0026206B28B1BC
:104C2000A069401CA0613046BDE8F081E5686D1CBC
:104C3000E56013D1606B006838B1502080F31188B3
:104C4000BFF34F8FBFF36F8FFEE7606BA16B6163A4
:104C5000A063206A401C2062FEF7DEFEA06ADFF837
:104C60007C80854209D3606B0068A0B1606BC0682E
:104C7000C7687868854211D2A0622068C06A00EBDC
:104C8000800158F82100012800D90126E069002898
:104C9000C9D00126C7E74FF0FF30EDE7381DFFF719
:104CA00069F8B86A18B107F11800FFF763F8F96AF4
:104CB0000120226988401043206101EB810108EB4B
:104CC0008100391DFFF7A6F8F86A2168C96A884291
:104CD000C9D30126C7E700006C000020440900206A
:104CE00070B504004FF0000140D0214D2868844287
:104CF00007D0502080F31188BFF34F8FBFF36F8F21
:104D0000FEE7A06C38B1401EA064636CE26A9A4270
:104D10002CD040B12AE0502080F31188BFF34F8F90
:104D2000BFF36F8FFEE7201DFFF724F8114A012122
:104D300050B9E06A00EB800352F8233023B92B69A5
:104D400001FA00F083432B61606CE062C0F1070060
:104D5000A061E06A2B6981401943296100EB800062
:104D600002EB8000211DFFF755F80121084670BDB8
:104D70006C0000204409002070B504004FF00000D2
:104D800034D01E4DE16A2A68D26A91422FD2A069BE
:104D9000002804DB2868C06AC0F10700A061184E33
:104DA00001EB8101606906EB810188421AD1201D67
:104DB000FEF7E0FF012130B994F82C002A6901FACE
:104DC00000F082432A612868C06AE0622A69814053
:104DD0001143296100EB800006EB8000211DFFF7E5
:104DE00019F802E02868C06AE062012070BD616CB9
:104DF0002A68D26A9142F8D370BD00006C0000208E
:104E0000440900202DE9F041C068C468ACB104F148
:104E100018000746FEF7AEFF154D286B0126A0B11E
:104E200039461448FEF7F6FFE06A2968C96A8842E5
:104E30001CD90120EE61BDE8F081502080F311887B
:104E4000BFF34F8FBFF36F8FFEE7201DFEF792FF7A
:104E5000E16A2A6906FA01F01043286101EB81003A
:104E60000449B43901EB8000211DDBE70020E2E7B3
:104E70006C000020F80900202DE9F0472C4D00249B
:104E80002746286B38B1FEF7D1FF286B401E2863F8
:104E9000286B40B146E0502080F31188BFF34F8F5C
:104EA000BFF36F8FFEE7A968224E0120D1B3A6F1B0
:104EB000B40980463068E8B1F068C46804F11800AD
:104EC000FEF758FF201DFEF755FFE06A2A6908FA31
:104ED00000F11143296100EB800109EB8100211DE4
:104EE000FEF798FFE06A2968C96A8842E2D3C5F8EC
:104EF0001C80DFE70CB1FEF78FFDAC6944B146467C
:104F0000FFF788FE00B1EE61641EF9D10020A861B0
:104F1000E86938B10849012738070860BFF34F8FA7
:104F2000BFF36F8FFEF7A2FF3846BDE8F0870000A1
:104F30006C000020F809002004ED00E010B586B0F8
:104F4000FEF704FB114C2068B8B1002003900490D8
:104F500005AA04A903A8FEF72BFFDDE9032102201F
:104F60008DE8070000230AA10B48059AFFF713FEFE
:104F7000606010B106B0012010BD502080F3118890
:104F8000BFF34F8FBFF36F8FFEE70000A800002034
:104F9000546D722053766300F53A0008FEB51E4644
:104FA00013460200089D4FF0000014D0124C2768F1
:104FB000002F0FD0CDE900130292062915DAFFF772
:104FC00015FE02284FF000030DD00022694620682C
:104FD000FFF776FAFEBD502080F31188BFF34F8FA4
:104FE000BFF36F8FFEE72A46F0E70023324669469B
:104FF0003846FFF715FBFEBDA800002068500008EA
:10500000BD3C00080100000000000000800000001E
:105010000000000000000000745000084142000839
:1050200001000000000000008000000000000000FF
:10503000000000007C5000086933000801000000F7
:1050400000000000800000000000000000000000E0
:105050000000000000000000010203040607080928
:10506000000000000102030474656D7072617475C4
:105070007265000077696669000000006F787967E3
:10508000656E0000A450000800000020EC00000045
:105090000C27000890510008EC000020344A000062
:1050A0001C27000800000000000000005000000065
:1050B0000000000000000000500000006000000040
:1050C00000000000000000000000000000000000E0
:1050D000000000000000000000000000010F380088
:1050E00000000000000000000000000000000000C0
:1050F00000000000000000000000000000000000B0
:105100000100000010000000000000000024F40076
:10511000000000000000000000000000000000008F
:10512000000000000000000000000000000000007F
:10513000000000000000000000000000000000006F
:10514000000000000000000000000000000000005F
:10515000000000000000000000000000000000004F
:10516000000000000000000000000000000000003F
:10517000000000000000000000000000000000002F
:1051800000000000AAAAAAAA000000000000000077
:040000050800018965
:00000001FF
